{
  "contractName": "Bank",
  "abi": [
    {
      "anonymous": false,
      "inputs": [
        {
          "indexed": true,
          "internalType": "address",
          "name": "accountHolder",
          "type": "address"
        },
        {
          "indexed": false,
          "internalType": "uint256",
          "name": "amount",
          "type": "uint256"
        }
      ],
      "name": "Deposit",
      "type": "event"
    },
    {
      "anonymous": false,
      "inputs": [
        {
          "indexed": true,
          "internalType": "address",
          "name": "from",
          "type": "address"
        },
        {
          "indexed": true,
          "internalType": "address",
          "name": "to",
          "type": "address"
        },
        {
          "indexed": false,
          "internalType": "uint256",
          "name": "amount",
          "type": "uint256"
        }
      ],
      "name": "Transfer",
      "type": "event"
    },
    {
      "anonymous": false,
      "inputs": [
        {
          "indexed": true,
          "internalType": "address",
          "name": "accountHolder",
          "type": "address"
        },
        {
          "indexed": false,
          "internalType": "uint256",
          "name": "amount",
          "type": "uint256"
        }
      ],
      "name": "Withdraw",
      "type": "event"
    },
    {
      "constant": false,
      "inputs": [],
      "name": "deposit",
      "outputs": [],
      "payable": true,
      "stateMutability": "payable",
      "type": "function"
    },
    {
      "constant": false,
      "inputs": [
        {
          "internalType": "uint256",
          "name": "amount",
          "type": "uint256"
        }
      ],
      "name": "withdraw",
      "outputs": [],
      "payable": false,
      "stateMutability": "nonpayable",
      "type": "function"
    },
    {
      "constant": true,
      "inputs": [],
      "name": "getBalance",
      "outputs": [
        {
          "internalType": "uint256",
          "name": "",
          "type": "uint256"
        }
      ],
      "payable": false,
      "stateMutability": "view",
      "type": "function"
    },
    {
      "constant": true,
      "inputs": [],
      "name": "getTotalDeposits",
      "outputs": [
        {
          "internalType": "uint256",
          "name": "",
          "type": "uint256"
        }
      ],
      "payable": false,
      "stateMutability": "view",
      "type": "function"
    },
    {
      "constant": false,
      "inputs": [
        {
          "internalType": "address",
          "name": "to",
          "type": "address"
        },
        {
          "internalType": "uint256",
          "name": "amount",
          "type": "uint256"
        }
      ],
      "name": "transfer",
      "outputs": [],
      "payable": false,
      "stateMutability": "nonpayable",
      "type": "function"
    },
    {
      "constant": false,
      "inputs": [
        {
          "internalType": "uint256",
          "name": "amount",
          "type": "uint256"
        }
      ],
      "name": "applyForLoan",
      "outputs": [],
      "payable": false,
      "stateMutability": "nonpayable",
      "type": "function"
    }
  ],
  "bytecode": "0x608060405234801561001057600080fd5b5061076f806100206000396000f3fe6080604052600436106100555760003560e01c806312065fe01461005a578063168a4822146100855780632e1a7d4d146100b0578063404d47ab146100eb578063a9059cbb14610126578063d0e30db014610181575b600080fd5b34801561006657600080fd5b5061006f61018b565b6040518082815260200191505060405180910390f35b34801561009157600080fd5b5061009a6101d1565b6040518082815260200191505060405180910390f35b3480156100bc57600080fd5b506100e9600480360360208110156100d357600080fd5b81019080803590602001909291905050506101db565b005b3480156100f757600080fd5b506101246004803603602081101561010e57600080fd5b810190808035906020019092919050505061032e565b005b34801561013257600080fd5b5061017f6004803603604081101561014957600080fd5b81019080803573ffffffffffffffffffffffffffffffffffffffff1690602001909291908035906020019092919050505061043f565b005b6101896105f6565b005b60008060003373ffffffffffffffffffffffffffffffffffffffff1673ffffffffffffffffffffffffffffffffffffffff16815260200190815260200160002054905090565b6000600254905090565b80806000803373ffffffffffffffffffffffffffffffffffffffff1673ffffffffffffffffffffffffffffffffffffffff168152602001908152602001600020541015610290576040517f08c379a00000000000000000000000000000000000000000000000000000000081526004018080602001828103825260128152602001807f496e73756666696369656e742066756e6473000000000000000000000000000081525060200191505060405180910390fd5b816000803373ffffffffffffffffffffffffffffffffffffffff1673ffffffffffffffffffffffffffffffffffffffff168152602001908152602001600020600082825403925050819055503373ffffffffffffffffffffffffffffffffffffffff167f884edad9ce6fa2440d8a54cc123490eb96d2768479d49ff9c7366125a9424364836040518082815260200191505060405180910390a25050565b60008111610387576040517f08c379a00000000000000000000000000000000000000000000000000000000081526004018080602001828103825260228152602001806107196022913960400191505060405180910390fd5b6000600160003373ffffffffffffffffffffffffffffffffffffffff1673ffffffffffffffffffffffffffffffffffffffff168152602001908152602001600020541461043c576040517f08c379a000000000000000000000000000000000000000000000000000000000815260040180806020018281038252601f8152602001807f596f7520616c7265616479206861766520616e20616374697665206c6f616e0081525060200191505060405180910390fd5b50565b80806000803373ffffffffffffffffffffffffffffffffffffffff1673ffffffffffffffffffffffffffffffffffffffff1681526020019081526020016000205410156104f4576040517f08c379a00000000000000000000000000000000000000000000000000000000081526004018080602001828103825260128152602001807f496e73756666696369656e742066756e6473000000000000000000000000000081525060200191505060405180910390fd5b816000803373ffffffffffffffffffffffffffffffffffffffff1673ffffffffffffffffffffffffffffffffffffffff16815260200190815260200160002060008282540392505081905550816000808573ffffffffffffffffffffffffffffffffffffffff1673ffffffffffffffffffffffffffffffffffffffff168152602001908152602001600020600082825401925050819055508273ffffffffffffffffffffffffffffffffffffffff163373ffffffffffffffffffffffffffffffffffffffff167fddf252ad1be2c89b69c2b068fc378daa952ba7f163c4a11628f55a4df523b3ef846040518082815260200191505060405180910390a3505050565b6000341161066c576040517f08c379a000000000000000000000000000000000000000000000000000000000815260040180806020018281038252601d8152602001807f416d6f756e74206d7573742062652067726561746572207468616e203000000081525060200191505060405180910390fd5b346000803373ffffffffffffffffffffffffffffffffffffffff1673ffffffffffffffffffffffffffffffffffffffff16815260200190815260200160002060008282540192505081905550346002600082825401925050819055503373ffffffffffffffffffffffffffffffffffffffff167fe1fffcc4923d04b559f4d29a8bfc6cda04eb5b0d3c460751c2402c5c5cc9109c346040518082815260200191505060405180910390a256fe4c6f616e20616d6f756e74206d7573742062652067726561746572207468616e2030a265627a7a723158207ff050121b43e3cb537c8c55c86822153d28599967529ffda0a0e3b561955f5b64736f6c63430005100032",
  "source": "// SPDX-License-Identifier: MIT\r\npragma solidity ^0.5.16;\r\n\r\ncontract Bank {\r\n    mapping(address => uint256) private balances;\r\n    mapping(address => uint256) private loanAmounts;\r\n    uint256 private totalDeposits;\r\n\r\n    event Deposit(address indexed accountHolder, uint256 amount);\r\n    event Withdraw(address indexed accountHolder, uint256 amount);\r\n    event Transfer(address indexed from, address indexed to, uint256 amount);\r\n\r\n    modifier hasSufficientFunds(uint256 amount) {\r\n        require(balances[msg.sender] >= amount, \"Insufficient funds\");\r\n        _;\r\n    }\r\n\r\n    function deposit() external payable {\r\n        require(msg.value > 0, \"Amount must be greater than 0\");\r\n        balances[msg.sender] += msg.value;\r\n        totalDeposits += msg.value;\r\n        emit Deposit(msg.sender, msg.value);\r\n    }\r\n\r\n    function withdraw(uint256 amount) external hasSufficientFunds(amount) {\r\n        balances[msg.sender] -= amount;\r\n        // payable(msg.sender).transfer(amount);\r\n        emit Withdraw(msg.sender, amount);\r\n    }\r\n\r\n    function getBalance() external view returns (uint256) {\r\n        return balances[msg.sender];\r\n    }\r\n\r\n    function getTotalDeposits() external view returns (uint256) {\r\n        return totalDeposits;\r\n    }\r\n\r\n    function transfer(address to, uint256 amount) external hasSufficientFunds(amount) {\r\n        balances[msg.sender] -= amount;\r\n        balances[to] += amount;\r\n        emit Transfer(msg.sender, to, amount);\r\n    }\r\n\r\n    function applyForLoan(uint256 amount) external {\r\n        require(amount > 0, \"Loan amount must be greater than 0\");\r\n        require(loanAmounts[msg.sender] == 0, \"You already have an active loan\");\r\n\r\n        // Your logic to process loan applications and calculate interest can be added here.\r\n        // For simplicity, we're not implementing the loan management in this example.\r\n    }\r\n}\r\n",
  "sourcePath": "F:\\Projects\\Aya-University\\Week 1\\contracts\\bank_mechanism.sol",
  "compiler": {
    "name": "solc",
    "version": "0.5.16+commit.9c3226ce.Emscripten.clang"
  },
  "schemaVersion": "3.4.14",
  "updatedAt": "2023-08-06T20:33:35.353Z",
  "devdoc": {
    "methods": {}
  },
  "userdoc": {
    "methods": {}
  }
}