{
  "contractName": "VotingSystem",
  "abi": [
    {
      "inputs": [
        {
          "internalType": "string[]",
          "name": "candidateNames",
          "type": "string[]"
        }
      ],
      "payable": false,
      "stateMutability": "nonpayable",
      "type": "constructor"
    },
    {
      "constant": true,
      "inputs": [
        {
          "internalType": "string",
          "name": "",
          "type": "string"
        }
      ],
      "name": "candidateExists",
      "outputs": [
        {
          "internalType": "bool",
          "name": "",
          "type": "bool"
        }
      ],
      "payable": false,
      "stateMutability": "view",
      "type": "function"
    },
    {
      "constant": true,
      "inputs": [
        {
          "internalType": "uint256",
          "name": "",
          "type": "uint256"
        }
      ],
      "name": "candidates",
      "outputs": [
        {
          "internalType": "string",
          "name": "name",
          "type": "string"
        },
        {
          "internalType": "uint256",
          "name": "voteCount",
          "type": "uint256"
        }
      ],
      "payable": false,
      "stateMutability": "view",
      "type": "function"
    },
    {
      "constant": true,
      "inputs": [
        {
          "internalType": "address",
          "name": "",
          "type": "address"
        }
      ],
      "name": "votes",
      "outputs": [
        {
          "internalType": "string",
          "name": "",
          "type": "string"
        }
      ],
      "payable": false,
      "stateMutability": "view",
      "type": "function"
    },
    {
      "constant": false,
      "inputs": [
        {
          "internalType": "string",
          "name": "candidateName",
          "type": "string"
        }
      ],
      "name": "vote",
      "outputs": [],
      "payable": false,
      "stateMutability": "nonpayable",
      "type": "function"
    },
    {
      "constant": true,
      "inputs": [
        {
          "internalType": "string",
          "name": "candidateName",
          "type": "string"
        }
      ],
      "name": "getVotesForCandidate",
      "outputs": [
        {
          "internalType": "uint256",
          "name": "",
          "type": "uint256"
        }
      ],
      "payable": false,
      "stateMutability": "view",
      "type": "function"
    },
    {
      "constant": true,
      "inputs": [],
      "name": "getTotalCandidates",
      "outputs": [
        {
          "internalType": "uint256",
          "name": "",
          "type": "uint256"
        }
      ],
      "payable": false,
      "stateMutability": "view",
      "type": "function"
    }
  ],
  "bytecode": "0x60806040523480156200001157600080fd5b50604051620011d3380380620011d3833981810160405262000037919081019062000325565b60008090505b81518110156200007a576200006c8282815181106200005857fe5b60200260200101516200008260201b60201c565b80806001019150506200003d565b5050620004ff565b600181604051620000949190620003e3565b908152602001604051809103902060009054906101000a900460ff1615620000f3576040517f08c379a0000000000000000000000000000000000000000000000000000000008152600401620000ea90620003fc565b60405180910390fd5b600060405180604001604052808381526020016000815250908060018154018082558091505090600182039060005260206000209060020201600090919290919091506000820151816000019080519060200190620001549291906200019d565b506020820151816001015550505060018082604051620001759190620003e3565b908152602001604051809103902060006101000a81548160ff02191690831515021790555050565b828054600181600116156101000203166002900490600052602060002090601f016020900481019282601f10620001e057805160ff191683800117855562000211565b8280016001018555821562000211579182015b8281111562000210578251825591602001919060010190620001f3565b5b50905062000220919062000224565b5090565b6200024991905b80821115620002455760008160009055506001016200022b565b5090565b90565b600082601f8301126200025e57600080fd5b8151620002756200026f826200044c565b6200041e565b9150818183526020840193506020810190508360005b83811015620002bf5781518601620002a48882620002c9565b8452602084019350602083019250506001810190506200028b565b5050505092915050565b600082601f830112620002db57600080fd5b8151620002f2620002ec8262000475565b6200041e565b915080825260208301602083018583830111156200030f57600080fd5b6200031c838284620004c9565b50505092915050565b6000602082840312156200033857600080fd5b600082015167ffffffffffffffff8111156200035357600080fd5b62000361848285016200024c565b91505092915050565b60006200037782620004a2565b620003838185620004be565b935062000395818560208601620004c9565b80840191505092915050565b6000620003b0601883620004ad565b91507f43616e64696461746520616c72656164792065786973747300000000000000006000830152602082019050919050565b6000620003f182846200036a565b915081905092915050565b600060208201905081810360008301526200041781620003a1565b9050919050565b6000604051905081810181811067ffffffffffffffff821117156200044257600080fd5b8060405250919050565b600067ffffffffffffffff8211156200046457600080fd5b602082029050602081019050919050565b600067ffffffffffffffff8211156200048d57600080fd5b601f19601f8301169050602081019050919050565b600081519050919050565b600082825260208201905092915050565b600081905092915050565b60005b83811015620004e9578082015181840152602081019050620004cc565b83811115620004f9576000848401525b50505050565b610cc4806200050f6000396000f3fe608060405234801561001057600080fd5b50600436106100625760003560e01c80630deb56ab146100675780633477ee2e146100855780636ff15627146100b6578063b620855b146100e6578063d8bff5a514610116578063fc36e15b14610146575b600080fd5b61006f610162565b60405161007c9190610ac6565b60405180910390f35b61009f600480360361009a919081019061082c565b61016e565b6040516100ad929190610a56565b60405180910390f35b6100d060048036036100cb91908101906107eb565b610237565b6040516100dd9190610ac6565b60405180910390f35b61010060048036036100fb91908101906107aa565b610337565b60405161010d9190610a19565b60405180910390f35b610130600480360361012b9190810190610781565b61036d565b60405161013d9190610a34565b60405180910390f35b610160600480360361015b91908101906107eb565b61041d565b005b60008080549050905090565b6000818154811061017b57fe5b9060005260206000209060020201600091509050806000018054600181600116156101000203166002900480601f0160208091040260200160405190810160405280929190818152602001828054600181600116156101000203166002900480156102275780601f106101fc57610100808354040283529160200191610227565b820191906000526020600020905b81548152906001019060200180831161020a57829003601f168201915b5050505050908060010154905082565b60006001826040516102499190610a02565b908152602001604051809103902060009054906101000a900460ff166102a4576040517f08c379a000000000000000000000000000000000000000000000000000000000815260040161029b90610a86565b60405180910390fd5b60008090505b60008054905081101561032c578280519060200120600082815481106102cc57fe5b90600052602060002090600202016000016040516102ea91906109eb565b6040518091039020141561031f576000818154811061030557fe5b906000526020600020906002020160010154915050610332565b80806001019150506102aa565b50600090505b919050565b6001818051602081018201805184825260208301602085012081835280955050505050506000915054906101000a900460ff1681565b60026020528060005260406000206000915090508054600181600116156101000203166002900480601f0160208091040260200160405190810160405280929190818152602001828054600181600116156101000203166002900480156104155780601f106103ea57610100808354040283529160200191610415565b820191906000526020600020905b8154815290600101906020018083116103f857829003601f168201915b505050505081565b60018160405161042d9190610a02565b908152602001604051809103902060009054906101000a900460ff16610488576040517f08c379a000000000000000000000000000000000000000000000000000000000815260040161047f90610a86565b60405180910390fd5b6000600260003373ffffffffffffffffffffffffffffffffffffffff1673ffffffffffffffffffffffffffffffffffffffff1681526020019081526020016000208054600181600116156101000203166002900490501461051e576040517f08c379a000000000000000000000000000000000000000000000000000000000815260040161051590610aa6565b60405180910390fd5b80600260003373ffffffffffffffffffffffffffffffffffffffff1673ffffffffffffffffffffffffffffffffffffffff168152602001908152602001600020908051906020019061057192919061060a565b5060008090505b6000805490508110156106065781805190602001206000828154811061059a57fe5b90600052602060002090600202016000016040516105b891906109eb565b604051809103902014156105f957600081815481106105d357fe5b906000526020600020906002020160010160008154809291906001019190505550610606565b8080600101915050610578565b5050565b828054600181600116156101000203166002900490600052602060002090601f016020900481019282601f1061064b57805160ff1916838001178555610679565b82800160010185558215610679579182015b8281111561067857825182559160200191906001019061065d565b5b509050610686919061068a565b5090565b6106ac91905b808211156106a8576000816000905550600101610690565b5090565b90565b6000813590506106be81610c53565b92915050565b600082601f8301126106d557600080fd5b81356106e86106e382610b0e565b610ae1565b9150808252602083016020830185838301111561070457600080fd5b61070f838284610c00565b50505092915050565b600082601f83011261072957600080fd5b813561073c61073782610b3a565b610ae1565b9150808252602083016020830185838301111561075857600080fd5b610763838284610c00565b50505092915050565b60008135905061077b81610c6a565b92915050565b60006020828403121561079357600080fd5b60006107a1848285016106af565b91505092915050565b6000602082840312156107bc57600080fd5b600082013567ffffffffffffffff8111156107d657600080fd5b6107e2848285016106c4565b91505092915050565b6000602082840312156107fd57600080fd5b600082013567ffffffffffffffff81111561081757600080fd5b61082384828501610718565b91505092915050565b60006020828403121561083e57600080fd5b600061084c8482850161076c565b91505092915050565b61085e81610bca565b82525050565b60008154600181166000811461088157600181146108a6576108ea565b607f60028304166108928187610b91565b955060ff19831686528086019350506108ea565b600282046108b48187610b91565b95506108bf85610b66565b60005b828110156108e1578154818901526001820191506020810190506108c2565b82880195505050505b505092915050565b60006108fd82610b86565b6109078185610bad565b9350610917818560208601610c0f565b80840191505092915050565b600061092e82610b7b565b6109388185610b9c565b9350610948818560208601610c0f565b61095181610c42565b840191505092915050565b6000610969601883610b9c565b91507f43616e64696461746520646f6573206e6f7420657869737400000000000000006000830152602082019050919050565b60006109a9601683610b9c565b91507f596f75206861766520616c726561647920766f746564000000000000000000006000830152602082019050919050565b6109e581610bf6565b82525050565b60006109f78284610864565b915081905092915050565b6000610a0e82846108f2565b915081905092915050565b6000602082019050610a2e6000830184610855565b92915050565b60006020820190508181036000830152610a4e8184610923565b905092915050565b60006040820190508181036000830152610a708185610923565b9050610a7f60208301846109dc565b9392505050565b60006020820190508181036000830152610a9f8161095c565b9050919050565b60006020820190508181036000830152610abf8161099c565b9050919050565b6000602082019050610adb60008301846109dc565b92915050565b6000604051905081810181811067ffffffffffffffff82111715610b0457600080fd5b8060405250919050565b600067ffffffffffffffff821115610b2557600080fd5b601f19601f8301169050602081019050919050565b600067ffffffffffffffff821115610b5157600080fd5b601f19601f8301169050602081019050919050565b60008190508160005260206000209050919050565b600081519050919050565b600081519050919050565b600081905092915050565b600082825260208201905092915050565b600081905092915050565b6000610bc382610bd6565b9050919050565b60008115159050919050565b600073ffffffffffffffffffffffffffffffffffffffff82169050919050565b6000819050919050565b82818337600083830152505050565b60005b83811015610c2d578082015181840152602081019050610c12565b83811115610c3c576000848401525b50505050565b6000601f19601f8301169050919050565b610c5c81610bb8565b8114610c6757600080fd5b50565b610c7381610bf6565b8114610c7e57600080fd5b5056fea365627a7a72315820a196bf57440e7ff188685670a1ad2ab5eae77bf6d04b4e6d3b168fb7c1cb59cb6c6578706572696d656e74616cf564736f6c63430005100040",
  "source": "// Simple Voting System in Solidity\r\n\r\n// SPDX-License-Identifier: MIT\r\npragma solidity ^0.5.16;\r\npragma experimental ABIEncoderV2;\r\n\r\ncontract VotingSystem {\r\n    // Structure to store candidate details\r\n    struct Candidate {\r\n        string name;\r\n        uint256 voteCount;\r\n    }\r\n\r\n    // Array of candidates\r\n    Candidate[] public candidates;\r\n\r\n    // Mapping to check if a candidate exists\r\n    mapping(string => bool) public candidateExists;\r\n\r\n    // Mapping to store the address of each voter and the candidate they voted for\r\n    mapping(address => string) public votes;\r\n\r\n    // Constructor to add candidates during contract deployment\r\n    constructor(string[] memory candidateNames) public {\r\n        for (uint256 i = 0; i < candidateNames.length; i++) {\r\n            addCandidate(candidateNames[i]);\r\n        }\r\n    }\r\n\r\n    // Function to add a new candidate\r\n    function addCandidate(string memory name) private {\r\n        require(!candidateExists[name], \"Candidate already exists\");\r\n        candidates.push(Candidate(name, 0));\r\n        candidateExists[name] = true;\r\n    }\r\n\r\n    // Function to cast a vote for a candidate\r\n    function vote(string memory candidateName) public {\r\n        require(candidateExists[candidateName], \"Candidate does not exist\");\r\n        require(bytes(votes[msg.sender]).length == 0, \"You have already voted\");\r\n\r\n        votes[msg.sender] = candidateName;\r\n\r\n        for (uint256 i = 0; i < candidates.length; i++) {\r\n            if (keccak256(bytes(candidates[i].name)) == keccak256(bytes(candidateName))) {\r\n                candidates[i].voteCount++;\r\n                break;\r\n            }\r\n        }\r\n    }\r\n\r\n    // Function to get the total votes for a candidate\r\n    function getVotesForCandidate(string memory candidateName) public view returns (uint256) {\r\n        require(candidateExists[candidateName], \"Candidate does not exist\");\r\n\r\n        for (uint256 i = 0; i < candidates.length; i++) {\r\n            if (keccak256(bytes(candidates[i].name)) == keccak256(bytes(candidateName))) {\r\n                return candidates[i].voteCount;\r\n            }\r\n        }\r\n\r\n        return 0;\r\n    }\r\n\r\n    // Function to get the total number of candidates\r\n    function getTotalCandidates() public view returns (uint256) {\r\n        return candidates.length;\r\n    }\r\n}\r\n",
  "sourcePath": "F:\\Projects\\Aya-University\\Week 1\\contracts\\voting_system.sol",
  "compiler": {
    "name": "solc",
    "version": "0.5.16+commit.9c3226ce.Emscripten.clang"
  },
  "schemaVersion": "3.4.14",
  "updatedAt": "2023-08-06T20:33:35.359Z",
  "devdoc": {
    "methods": {}
  },
  "userdoc": {
    "methods": {}
  }
}